:100000000C9441000C945E000C945E000C945E0015
:100010000C945E000C945E000C945E000C94320E06
:100020000C945E000C945E000C945E000C94E20D47
:100030000C945E000C945E000C945E000C945E00C8
:100040000C945E000C945E000C945E000C945E00B8
:100050000C945E005A089108B208D40899095E0A07
:10006000200B760BAC0B011108110F1116111D118D
:1000700024112B11F111F811FF1106120D12141297
:100080001B1211241FBECFE5D8E0DEBFCDBF12E0AA
:10009000A0E6B0E0E2ECF4E202C005900D92A43ECE
:1000A000B107D9F723E0A4EEB2E001C01D92A0365B
:1000B000B207E1F70E94330D0C945F120C9400001C
:1000C00000C000C000C000C000C000C00000089513
:1000D000A198A098A998A8980895A19AF1DF1DD099
:1000E0000895A09AEDDFA198EBDFA098E9DFA19A2F
:1000F000E7DF13D00895082EA19AE2DF802D0DD0FE
:10010000882311F002D0F8CF0895A09AA19AD8DFE1
:10011000A098D6DFA198D4DF08950894881F01C065
:10012000880F59F0A09A18F40000A19802C0A19A73
:1001300000C0C6DFA098C4DFF3CFA09AA198C0DFAB
:10014000A098989BFECF8827999981E0B9DF9927DD
:100150000895882701C081E071E0A09AA198B0DFDE
:10016000A098AEDF989BFECF889499990894771F4A
:10017000A0F7A09A813011F0A19801C0A19AA0DF48
:10018000A098989BFECF9CDF872F992708958823FE
:1001900011F0AA9A01C0AA98979A8B988A98899880
:1001A0008898969A00C0839B02C080E101C080E0DD
:1001B000829980628199806480998068969800C055
:1001C000969A00C083998160829982608199846047
:1001D000809988609698089580E00E94C7008823DF
:1001E000DCF384E090E00197F1F780E00E94C70023
:1001F0000895969A00C085E88A95F1F700009698D0
:100200000895CF93C82F662311F0AA9A01C0AA9827
:1002100097988B9A8A9A899A889A909891989298A6
:100220009398CC230CF4909AC6FD919AC5FD929AAE
:10023000C4FD939A0E94F90090989198929893988F
:10024000C3FD909AC2FD919AC1FD929AC0FD939A06
:100250000E94F900939A929A919A909ACF91089558
:10026000CF93C82F0E94EC0060E08C2F0E94010108
:10027000CF910895611104C080580E943001089503
:1002800080540E943001089581E00E943001089559
:10029000CF93C82F0E94EC00CA3049F4803410F08C
:1002A00080E001C080E480580E94300104C061E019
:1002B0008C2F0E940101CF910895CF93DF93EC0121
:1002C0002196FC018081882329F00E9448018991B0
:1002D0008111FBCFDF91CF9108951F93CF93DF93CF
:1002E000182FA29A8F9A8E9A8B9A8A9A899A889AAC
:1002F00080E09DE70197F1F7929A939A0E94F900A6
:1003000080E097E20197F1F70E94F900C0E8D0E0A1
:10031000CE010197F1F70E94F900CE010197F1F7A4
:1003200093980E94F9002197F1F788E20E9430012A
:1003300088E00E9430010E94440186E00E94300162
:10034000812F0E943001DF91CF911F910895DC0130
:100350009091E802990F990F9C709093E8029C99F4
:1003600005C08091E80281608093E8029D9905C0F4
:100370008091E80282608093E802E091E8029C911B
:10038000F0E0E05AFF4F8081890F8C938C91082E0A
:10039000000C990B0895FC019081292F092E000C67
:1003A000330B421753070CF4962F99230CF4942F18
:1003B000908308959DEC899F912D11249695969593
:1003C0009695392F3295307F990F292F220F220FC2
:1003D000920F891B832B0895982F92959F70990FE8
:1003E000292F220F220F920F8F70890F08952F92BD
:1003F0003F924F925F926F927F928F929F92AF92B5
:10040000BF92CF92DF92EF92FF920F931F93CF9301
:10041000DF93682E762E282F30E0C90189509D4F3A
:100420008C010B5E1F4FA901445F5C4F2A014C01F8
:1004300059E2850E911C5C01EFE1AE0EB11CEC019E
:100440006096A901495F5C4F1A016C0154E2C50E28
:10045000D11C7C01EAE1EE0EF11C61E080E00E941B
:100460003A01772009F442C086EF92E00E94A7018A
:100470009881890F88831092F60247E150E060E08E
:1004800070E0C1010E94CB0180913C0390913D033B
:10049000019690933D0380933C03C29750F427E06C
:1004A000F6014081F701608188810E943D100E9421
:1004B0005D0180913C0390913D03C39750F026E08D
:1004C000F6014081F701608188810E943D100E9401
:1004D0005D0180913C0390913D038536910508F4C0
:1004E00048C010923D0310923C0343C086EF92E057
:1004F0000E94A701F8019081890F80831092F60273
:1005000047E150E060E070E0C2010E94CB018091C1
:100510003C0390913D03019690933D0380933C03EF
:10052000C29758F427E0F4014081F5016081F80199
:1005300080810E943D100E945D0180913C0390915A
:100540003D03C39758F026E0F4014081F501608136
:10055000F80180810E943D100E945D0180913C0362
:1005600090913D038536910520F010923D03109245
:100570003C0380E790E00E945D019B996ECFFFEF06
:1005800022E547E0F15020404040E1F700C0000084
:10059000262D30E0C90189509D4F8C01015E1F4F0F
:1005A000F901EA5EFC4F2F014C01F9E28F0E911C1C
:1005B0005C0145E1A40EB11CEC016A96F901EF5E05
:1005C000FC4F1F016C01F4E2CF0ED11C7C0120E135
:1005D000E20EF11C61E080E00E943A01772009F40C
:1005E00042C086EF92E00E94A7019881890F88831C
:1005F0001092F6024BE350E060E070E0C1010E940F
:10060000CB0180913C0390913D03019690933D0373
:1006100080933C03C29750F427E0F6014081688143
:10062000F70180810E943D100E945D0180913C0392
:1006300090913D03C39750F025E0F6014081688119
:10064000F70180810E943D100E945D0180913C0372
:1006500090913D038536910508F448C010923D0302
:1006600010923C0343C086EF92E00E94A701F8017C
:100670009081890F80831092F6024BE350E060E096
:1006800070E0C2010E94CB0180913C0390913D0338
:10069000019690933D0380933C03C29758F427E062
:1006A000F4014081F8016081F50180810E943D10D4
:1006B0000E945D0180913C0390913D03C39758F0E7
:1006C00025E0F4014081F8016081F50180810E94FC
:1006D0003D100E945D0180913C0390913D03853661
:1006E000910520F010923D0310923C0380E790E0CA
:1006F0000E945D019B996ECFFFEF22E547E0F1502C
:1007000020404040E1F700C00000262D30E0C90144
:1007100089509D4F8C01075D1F4FF901E05EFC4F32
:100720002F014C01FFE18F0E911C5C0145E1A40EED
:10073000B11CEC01A496F901E55EFC4F1F016C01B0
:10074000FAE1CF0ED11C7C0120E1E20EF11C61E048
:1007500080E00E943A01772009F442C086EF92E0DF
:100760000E94A7019881890F88831092F6024BE3BB
:1007700050E060E070E0C1010E94CB0180913C0339
:1007800090913D03019690933D0380933C03C29763
:1007900050F427E04881F6016081F70180810E94D2
:1007A0003D100E945D0180913C0390913D03C397F1
:1007B00050F023E04881F6016081F70180810E94BA
:1007C0003D100E945D0180913C0390913D03853670
:1007D000910508F448C010923D0310923C0343C0B9
:1007E00086EF92E00E94A701F8019081890F808333
:1007F0001092F6024BE350E060E070E0C2010E940C
:10080000CB0180913C0390913D03019690933D0371
:1008100080933C03C29758F427E0F8014081F4012B
:100820006081F50180810E943D100E945D018091F0
:100830003C0390913D03C39758F023E0F8014081B9
:10084000F4016081F50180810E943D100E945D01EC
:1008500080913C0390913D038536910520F01092E4
:100860003D0310923C0380E790E00E945D019B995C
:100870006ECFFFEF22E547E0F15020404040E1F726
:1008800000C00000772021F1C62DD0E0FE01E95024
:10089000FD4F6089CE018F5F9F4F0E944E12E199FC
:1008A000FECFFE01E950FD4F628DCE01855F9F4F67
:1008B0000E944E12E199FECFFE01E950FD4F64A166
:1008C000CE018B5E9F4F0E944E12E199FECF23C056
:1008D000C62DD0E0FE01E950FD4F6589CE018A5F4B
:1008E0009F4F0E944E12E199FECFFE01E950FD4F4D
:1008F000678DCE01805F9F4F0E944E12E199FECF1F
:10090000FE01E950FD4F61A5CE01865E9F4F0E941A
:100910004E12E199FECF61E080E00E943A0186E745
:1009200090E00E945D015FEF82E597E051508040CA
:100930009040E1F700C00000EEE3F3E0168215827C
:10094000DF91CF911F910F91FF90EF90DF90CF90AB
:10095000BF90AF909F908F907F906F905F904F90DF
:100960003F902F9008950F931F93CF93DF93EC0147
:100970000E94B50F8A810E94EC018A8389810E94BE
:10098000EC01898388810E94EC0188838E010E5FCF
:100990001F4F86EF92E00E94A7019A81890F8A83F8
:1009A0001092F60247E150E060E070E0C8010E945A
:1009B000CB0161E080E00E943A0180913C0390917C
:1009C0003D03019690933D0380933C03C29740F40E
:1009D00027E0488169818A810E943D100E945D0163
:1009E00080913C0390913D03C39740F026E04881FD
:1009F00069818A810E943D100E945D0180913C03C3
:100A000090913D038536910520F010923D031092A0
:100A10003C0380E790E00E945D019B99BACF2FEFE5
:100A200082E597E0215080409040E1F700C000004F
:100A30008E010F5F1F4F86EF92E00E94A701998100
:100A4000890F89831092F6024BE350E060E070E07A
:100A5000C8010E94CB0161E080E00E943A018091D0
:100A60003C0390913D03019690933D0380933C039A
:100A7000C29740F427E0488169818A810E943D1035
:100A80000E945D0180913C0390913D03C39740F02B
:100A900025E0488169818A810E943D100E945D01A4
:100AA00080913C0390913D038536910520F0109292
:100AB0003D0310923C0387E890E00E945D019B9902
:100AC000BACF2FEF82E597E0215080409040E1F7C8
:100AD00000C0000086EF92E00E94A7019881890F74
:100AE00088831092F6024BE350E060E070E0CE01A4
:100AF0000E94CB0161E080E00E943A0180913C03BA
:100B000090913D03019690933D0380933C03C297DF
:100B100040F427E0488169818A810E943D100E944B
:100B20005D0180913C0390913D03C39740F023E029
:100B3000488169818A810E943D100E945D018091F7
:100B40003C0390913D038536910520F010923D03C2
:100B500010923C038DE890E00E945D019B99BACF12
:100B60002FEF82E597E0215080409040E1F700C0F0
:100B70000000488169818A810E94E80E61E080E07E
:100B80000E943A0186E790E00E945D012FEF82E526
:100B900097E0215080409040E1F700C000001092A3
:100BA0002503DF91CF911F910F910895CF92DF928E
:100BB000EF92FF920F93CF93DF93EC010E94B50F5A
:100BC0008C810E94EC018C838B810E94EC018B83D1
:100BD0008E810E94EC0190E08053984F9F838E831A
:100BE0007E0124E0E20EF11C86EF92E00E94A70154
:100BF0009C81890F8C831092F6024FE150E060E0F7
:100C000070E0C7010E94CB0161E080E00E943A01E0
:100C100080913C0390913D03019690933D03809316
:100C20003C03C29750F44E815F810FE02D816B81B0
:100C30008C810E943D110E945D0180913C03909146
:100C40003D03C39750F04E815F810EE02D816B8193
:100C50008C810E943D110E945D0180913C03909126
:100C60003D038536910520F010923D0310923C0320
:100C70009B99BACF8FEF92E527E0815090402040BA
:100C8000E1F700C000007E0183E0E80EF11C86EF72
:100C900092E00E94A7019B81890F8B831092F6023C
:100CA0004CE050E060E070E0C7010E94CB0161E0E1
:100CB00080E00E943A0180913C0390913D030196AF
:100CC00090933D0380933C03C29750F44E815F8123
:100CD0000FE02D816B818C810E943D110E945D018E
:100CE00080913C0390913D03C39750F04E815F810A
:100CF0000DE02D816B818C810E943D110E945D0170
:100D000080913C0390913D038536910520F010922F
:100D10003D0310923C039B99BACF9FEF22E587E0F9
:100D2000915020408040E1F700C000000F2EF3E317
:100D3000CF2EF8E0DF2EF02D0F2EF1EEEF2EF7E0A4
:100D4000FF2EF02D86EF92E00E94A7012E813F81B9
:100D5000820F931F9F838E831092F602813E27E0BD
:100D6000920718F4FF82EE8205C08433984010F099
:100D7000DF82CE8261E080E00E943A0180913C03F4
:100D800090913D03019690933D0380933C03C2975D
:100D900050F44E815F810FE02D816B818C810E9428
:100DA0003D110E945D0180913C0390913D03C397EA
:100DB00050F04E815F810BE02D816B818C810E9410
:100DC0003D110E945D0180913C0390913D03853669
:100DD000910520F010923D0310923C039B99B2CFF5
:100DE0008FEF92E527E0815090402040E1F700C06E
:100DF00000007E0185E0E80EF11C86EF92E00E9483
:100E0000A7019D81890F8D831092F60247E050E083
:100E100060E070E0C7010E94CB0161E080E00E94C9
:100E20003A0180913C0390913D03019690933D03DC
:100E300080933C03C29750F44E815F810FE02D8177
:100E40006B818C810E943D110E945D0180913C0369
:100E500090913D03C39750F04E815F8107E02D8153
:100E60006B818C810E943D110E945D0180913C0349
:100E700090913D038536910520F010923D0310922C
:100E80003C039B99BACF9FEF24E38CE09150204024
:100E90008040E1F700C000002E813F814B816D81D1
:100EA0008C810E94370F61E080E00E943A0186E762
:100EB00090E00E945D019FEF22E587E09150204085
:100EC0008040E1F700C0000010922503DF91CF9130
:100ED0000F91FF90EF90DF90CF9008957F928F92C7
:100EE0009F92AF92BF92CF92DF92EF92FF920F93B9
:100EF0001F93CF93DF938C017B01FB01B280A09005
:100F0000E7026C01F0E1CF0ED11CC0E0D0E08824F4
:100F10008394912CF60181916F010E94DA018B116B
:100F200018C0F60181850E94DA01F70191818913C9
:100F300010C0F60183890E94DA01F70190818913BC
:100F400008C0C4010C2E02C0880F991F0A94E2F752
:100F5000A82A2196C330D105E9F60B5E1F4FC0E0E9
:100F6000D0E0CC24C394D12CF80181918F010E9450
:100F7000DA01B81219C0F80181850E94DA01F7017F
:100F80009181891311C0F80183890E94DA01F70168
:100F90009081891309C0C6010C2E02C0880F991FC9
:100FA0000A94E2F78095A8222196C330D105E1F694
:100FB000A092E7028A2DDF91CF911F910F91FF90B0
:100FC000EF90DF90CF90BF90AF909F908F907F90E9
:100FD0000895FC01709620E030E080E061E070E070
:100FE00041919481491310C04185968549130CC0E5
:100FF0004389908D491308C0DB01022E02C0AA0F5D
:10100000BB1F0A94E2F78A2B2F5F3F4F2330310535
:1010100039F708956FE273E087EF92E00E946E0760
:101020008093280380FD04C080912B0385FF05C0B9
:1010300085E08093F102C29803C01092F102C29A37
:101040008091280381FD04C080912B0386FF05C099
:1010500085E08093F202C39803C01092F202C39A13
:101060008091280382FD04C080912B0388232CF4F7
:1010700085E08093F302C49808951092F302C49A15
:101080000895DF92EF92FF920F931F93CF93DF9318
:10109000EB01DC01EC914E2FEE0F550B660B770B3D
:1010A0004930510508F07AC38C01FA01E65DFF4F23
:1010B0000C94311260E080E00E943A0180912D038F
:1010C000863058F44E815F814053584F2D816B819B
:1010D0008C810E94A6100E945D0180912D038A5090
:1010E000823020F483E990E00E945D0180912D031D
:1010F0008C50823020F484EA90E00E945D0180915F
:101100002D038E3010F010922D0361E080E00E94DC
:101110003A01488169818A810E9414100E945D0110
:101120003DC360E080E00E943A0185EB90E00E94C0
:101130005D0161E080E00E943A0186EC90E00E944F
:101140005D019B992BC3BFEFE4E3FCE0B150E040AD
:10115000F040E1F700C00000CE010E94B304D801C6
:101160001C921CC360E080E00E943A0185EB90E095
:101170000E945D0161E080E00E943A0187ED90E00D
:101180000E945D019B990CC0BFEFE4E3FCE0B1500D
:10119000E040F040E1F700C00000CE010E94D6051B
:1011A00082E0D8018C93FAC260E080E00E943A01AC
:1011B00085EB90E00E945D0161E080E00E943A01D1
:1011C00088EE90E00E945D019B99E8C2BFEFE4E3E6
:1011D000FCE0B150E040F040E1F700C0000081E0E9
:1011E00080932C0310924303C7EFD2E0FF24F394C3
:1011F0000F2EF5E0EF2EF02D0EE313E06894DD24C2
:10120000D5F886EF92E00E94A7019DA9890F8DABCA
:101210001092F602863014F0EDAA03C018160CF0F6
:10122000FDAA6F2D80E00E943A018DA98130B1F4B2
:1012300089EF90E00E945D019B9910C02FEF84E33D
:101240009CE0215080409040E1F700C000006F2DED
:1012500080E00E94F701D80115961C928DA982307A
:10126000B1F48AE091E00E945D019B9910C0BFEF4C
:10127000E4E3FCE0B150E040F040E1F700C00000E2
:1012800060E080E00E94F701D80115961C928DA9BC
:10129000833001F59B9912C0BFEFE2E5F7E0B15052
:1012A000E040F040E1F700C000006F2D80E00E94B8
:1012B0003A018CA98D258CAB0E940A088CA985FF68
:1012C00005C08BE191E00E945D0104C08CE291E0D9
:1012D0000E945D018DA9843091F46F2D80E00E9401
:1012E0003A01CE010E94E90780FF05C08DE391E03D
:1012F0000E945D0104C08EE491E00E945D018DA911
:10130000853081F48FE591E00E945D019B990AC0D0
:101310002FEF84E39CE0215080409040E1F700C033
:1013200000003CC2D80115968C918F3008F469CF2B
:1013300035C260E080E00E943A0185EB90E00E94B7
:101340005D0161E080E00E943A0180E791E00E9447
:101350005D019B9923C2BFEFE4E3FCE0B150E040A4
:10136000F040E1F700C0000081E080932C03109270
:101370004303C7EFD2E0FF24F3940F2EF5E0EF2EE6
:10138000F02D0EE313E06894DD24D6F886EF92E0AA
:101390000E94A7019DA9890F8DAB1092F60286309D
:1013A00014F0EDAA03C018160CF0FDAA6F2D80E012
:1013B0000E943A018DA98130B1F489EF90E00E943A
:1013C0005D019B9910C02FEF84E39CE02150804089
:1013D0009040E1F700C000006F2D8F2D0E94F701B3
:1013E000D80115961C928DA98230B1F48AE091E063
:1013F0000E945D019B9910C0BFEFE4E3FCE0B15097
:10140000E040F040E1F700C0000060E08F2D0E9456
:10141000F701D80115961C928DA9833001F59B998F
:1014200012C0BFEFE2E5F7E0B150E040F040E1F775
:1014300000C000006F2D80E00E943A018CA98D252C
:101440008CAB0E940A088CA986FF05C08BE191E055
:101450000E945D0104C08CE291E00E945D018DA9B3
:10146000843091F46F2D80E00E943A01CE010E94F9
:10147000E90781FF05C08DE391E00E945D0104C092
:101480008EE491E00E945D018DA9853081F48FE5A5
:1014900091E00E945D019B990AC02FEF84E39CE0DC
:1014A000215080409040E1F700C0000077C1D80192
:1014B00015968C918F3008F469CF70C160E080E0A0
:1014C0000E943A0185EB90E00E945D0161E080E0BE
:1014D0000E943A0181E891E00E945D019B995EC102
:1014E000BFEFE4E3FCE0B150E040F040E1F700C0C2
:1014F000000081E080932C0310924303C7EFD2E0F9
:10150000FF24F3940F2EF5E0EF2EF02D0EE313E001
:1015100086EF92E00E94A7019DA9890F8DAB1092E2
:10152000F602863014F0EDAA03C018160CF0FDAADE
:101530006F2D80E00E943A018DA98130B1F489EFCE
:1015400090E00E945D019B9910C02FEF84E39CE026
:10155000215080409040E1F700C000006F2D82E0F4
:101560000E94F701D80115961C928DA98230B1F422
:101570008AE091E00E945D019B9910C0BFEFE4E317
:10158000FCE0B150E040F040E1F700C0000060E056
:1015900082E00E94F701D80115961C928DA9833034
:1015A00001F59B9912C0BFEFE2E5F7E0B150E040D2
:1015B000F040E1F700C000006F2D80E00E943A018A
:1015C0008CA980588CAB0E940A088CA988232CF423
:1015D0008BE191E00E945D0104C08CE291E00E94E9
:1015E0005D018DA9843091F46F2D80E00E943A0155
:1015F000CE010E94E90782FF05C08DE391E00E94C1
:101600005D0104C08EE491E00E945D018DA98530EA
:1016100081F48FE591E00E945D019B990AC02FEF54
:1016200084E39CE0215080409040E1F700C000003E
:10163000B5C0D80115968C918F3008F469CFAEC033
:1016400060E080E00E943A0182E991E00E945D0141
:1016500061E080E00E943A01E7EFF2E091A984A9FD
:10166000892B81AB9DE290839EE3918394E59283E5
:1016700092E7938399E6948391E6958393E6968324
:101680009BE59783982F917221F091E39093FF024D
:1016900003C09DE29093FF02E7EFF2E09DE59187A2
:1016A0009BE59287982F927421F092E39093020326
:1016B00003C09DE290930203E7EFF2E09DE594877B
:1016C0009BE5958783FD02C0882324F483E3809300
:1016D000050303C08DE280930503E7EFF2E08DE59B
:1016E0008787108ACF010E945D0158C010922E0397
:1016F00060E080E00E943A0183EA91E00E945D018F
:1017000061E080E00E943A019B9915C0BFEFE4E3DD
:10171000FCE0B150E040F040E1F700C000009091E3
:10172000EC0281E089278093EC026091EC0280E07A
:1017300090E00E944E128091EC0280FF04C084EB86
:1017400091E00E945D018091EC0280FD27C085EC54
:1017500091E00E945D0122C060E080E00E943A01B9
:1017600086ED91E00E945D0161E080E00E943A0117
:1017700080912E03823020F483E990E00E945D0185
:1017800080912E03843020F084EA90E00E945D0175
:1017900080912E03873010F010922E03DF91CF91AD
:1017A0001F910F91FF90EF90DF900895DF92EF92DD
:1017B000FF920F931F93CF93DF93C1E0D0E00F2EE2
:1017C000F7EFEF2EF2E0FF2EF02DD12CCE010E948C
:1017D00046128701F701808BE199FECFCE01059675
:1017E0000E944612F801858BE199FECFCE010A9640
:1017F0000E944612F801828FE199FECFCE010F962A
:101800000E944612F801878FE199FECFCE014496DF
:101810000E944612F80184A3E199FECFCE014996B9
:101820000E944612F80181A7D3942196FFEFEF1A88
:10183000FF0A83E0D812CACF80E090E00E944612EF
:101840008093EC02DF91CF911F910F91FF90EF9069
:10185000DF9008958AB38F608ABB8D9A8C9A84B387
:101860008F7C84BBA398AB9A87B38C6187BB83B70B
:10187000816083BF12BE89B7816089BF8EB58260E7
:101880008EBD8EB588608EBD83E690E09BBD8ABD1F
:1018900089B7806189BF0895CF93DF93CFEED2E0FF
:1018A0008FEF8A838B838C8360E080E00E943A0113
:1018B00087EE91E00E945D0161E080E00E943A01C4
:1018C00083E990E00E945D018A818823B1F0FE01E6
:1018D0008281882349F08281815082838381815073
:1018E00083838481815084838FE39FE10197F1F7A3
:1018F00000C0000082818111EBCF60E080E00E9497
:101900003A0188EF91E00E945D0161E080E00E9471
:101910003A0184EA90E00E945D018091F1028F3FDC
:1019200089F0EFEEF2E082818F3F19F082818F5FC4
:1019300082838FE39FE10197F1F700C0000082816D
:101940008F3F89F760E080E00E943A0189E092E0F1
:101950000E945D0161E080E00E943A018AE192E02C
:101960000E945D018091F2028F3F89F0EFEEF2E07C
:1019700083818F3F19F083818F5F83838FE39FE1A2
:101980000197F1F700C0000083818F3F89F760E085
:1019900080E00E943A018BE292E00E945D0161E0EA
:1019A00080E00E943A018CE392E00E945D01809108
:1019B000F3028F3F89F0EFEEF2E084818F3F19F060
:1019C00084818F5F84838FE39FE10197F1F700C0EB
:1019D000000084818F3F89F760E080E00E943A0137
:1019E0008DE492E00E945D0161E080E00E943A0196
:1019F0008DE592E00E945D019FEF2DE389E4915017
:101A000020408040E1F700C0000060E080E00E94DC
:101A10003A018DE692E00E945D0161E080E00E9463
:101A20003A018EE792E00E945D018091F3028823E3
:101A3000B9F0EFEEF2E08481882349F08281815091
:101A400082838381815083838481815084838FE367
:101A50009FE10197F1F700C0000084818111EBCF75
:101A6000DF91CF9108950E942A0C0E94D60B8CE042
:101A70000E946D010E94680083E80E94A60F78947E
:101A8000EFEEF2E083E2808384E6858311821282A6
:101A9000138214828FE293E00E94B50F0E944C0CD7
:101AA0000EE313E0C7EFD2E00F2EFFEEEF2EF2E0D1
:101AB000FF2EF02D0F2EF5EABF2EF02D0F2EF4E69F
:101AC000CF2EF02D6894DD24D3F8F80185818F3076
:101AD00010F015821EA6F80186818131A8F0809150
:101AE000EC0280FD11C08091EA029091EB020A970E
:101AF00058F01092EB021092EA02F70185818823D8
:101B000019F08581815085838091F6028111B09210
:101B1000E902F7018581843688F48091EA02909188
:101B2000EB020A9758F08091E902853A39F4109255
:101B3000EB021092EA0285818F5F8583F701858130
:101B4000843610F01092E9028EA588AB9FA5891704
:101B500021F0F801158216828FA79B9905C0F80124
:101B600015821682F701C58286EF92E00E94A701D6
:101B70009EA5890F8EA71092F6028091ED0290919A
:101B8000EE028A3F910568F01092EE021092ED028B
:101B90008FE293E00E94B50F6FE273E0CE010E94E6
:101BA0006E078EA5893014F0DEA603C018160CF05F
:101BB0001EA66FE273E085E293E00E9441080E9456
:101BC0000A0883CF1F920F920FB60F9211248F93A2
:101BD0009F938091E602843618F01092E60203C0CB
:101BE0008F5F8093E6029091EF028091E602891761
:101BF00010F0959801C0959A9091F0028091E602BC
:101C0000891710F0D89A01C0D8989091F10280916C
:101C1000E602891710F0D99A01C0D9989091F20282
:101C20008091E602891710F0DA9A01C0DA98909153
:101C3000F3028091E602891710F0DB9A01C0DB986D
:101C40009091F4028091E602891710F0949801C0F7
:101C5000949A80EA82BF9F918F910F900FBE0F9050
:101C60001F9018951F920F920FB60F9211242F9369
:101C70003F934F935F936F937F938F939F93AF9314
:101C8000BF93EF93FF93EEE3F3E0808191810196A0
:101C9000918380838091E4029091E5029C012F5F03
:101CA0003F4F3093E5022093E4022C3D45E034079A
:101CB00018F44FE04093F0022D3D65E0360710F038
:101CC0001092F002AC01485B5B404B3D554018F46C
:101CD0004FE04093F002AC01445951414B3D554017
:101CE00010F41092F002805797418B3D954018F404
:101CF0008FE08093F0022931364F20F01092E502F8
:101D00001092E40280913E0390913F030A97F8F00D
:101D1000EEE3F3E011821082828193810196938336
:101D200082838091ED029091EE0201969093EE02F3
:101D30008093ED028091EA029091EB0201969093DC
:101D4000EB028093EA0286EF92E00E94A701809165
:101D5000400390914103883E934018F1A7EFB2E011
:101D6000D7968C91D7978F5FD7968C93D797EEE3C2
:101D7000F3E01382128284818F5F848385818F5F79
:101D8000858386818F5F8683D3968C91D3978F5F6F
:101D9000D3968C93D397D6968C91D6978F5FD69601
:101DA0008C93809142038C3310F010924203FF9188
:101DB000EF91BF91AF919F918F917F916F915F91C3
:101DC0004F913F912F910F900FBE0F901F9018953C
:101DD0001F93CF93DF93893108F045C06C3308F02F
:101DE00042C09DEC899F212D11242695269526958C
:101DF000C22FC295C07F220F322F330F330F230F14
:101E0000821BC82B699F812D112486958695869506
:101E1000D82FD295D07F880F282F220F220F820F24
:101E2000681BD62B499F912D1124969596959695D2
:101E3000192F1295107F990F892F880F880F980FEF
:101E4000491B142B82EA0E947B0082E00E948D00D5
:101E5000812F0E948D008D2F0E948D008C2F0E945B
:101E60008D000E948500DF91CF911F9108950F93FF
:101E70001F93CF93DF939FEF980F9F3108F061C0BE
:101E8000673008F05EC04D3008F05BC02F3D97E032
:101E9000390708F456C09DEC899F312D11243695E1
:101EA00036953695C32FC295C07F330F532F550FEC
:101EB000550F350F831BC82B699F812D11248695E3
:101EC00086958695D82FD295D07F880F382F330FDF
:101ED000330F830F681BD62B499F812D11248695C4
:101EE00086958695182F1295107F880F382F330FFF
:101EF000330F830F481B142B205D299F912D112434
:101F0000969596959695092F0295007F990F892FA2
:101F1000880F880F980F291B022B82EA0E947B00F2
:101F200085E00E948D008C2F0E948D008D2F0E94D5
:101F30008D00812F0E948D00802F0E948D000E94B5
:101F40008500DF91CF911F910F910895CF93C82FF6
:101F500082EA0E947B008DE00E948D008C2F0E94FF
:101F60008D000E948500CF910895CF93DF93EC01FF
:101F7000789482EA0E947B0082E00E948D0083EACE
:101F80000E9471000E94AB0088830E94AB0089838D
:101F90000E94AB008A830E94AB008C830E94AB003E
:101FA0008D830E94AB008B830E94AB0090E09F83E7
:101FB0008E830E94AB0088870E94AB0089870E94B5
:101FC000AB008A870E94A9008B870E948500288128
:101FD0002F77288399819F7799838A818F738A834A
:101FE0003C813F733C833B813F713B833D81377034
:101FF0003D8338853F77388739853F7739873A85FC
:102000003F773A873B853F773B873091F5028317CF
:1020100041F0911106C0223020F48093F50281E056
:102020008C87DF91CF910895E5E4F3E090E290830F
:10203000918392839383282F22952F70205D248390
:102040008F70805D85832AE32683862F82958F702B
:10205000805D87836F70605D60872187842F8295A4
:102060008F70805D82874F70405D4387948795872E
:1020700096879787108ACF010895E5E4F3E090E210
:10208000908391839283938320FF13C09DEC899F5B
:10209000912D112496959695969530E3390F3483BA
:1020A000990F392F330F330F930F891B805D858371
:1020B00005C0E5E4F3E080E2848385838AE38093CE
:1020C0004B0321FF15C0E5E4F3E08DEC689F812D03
:1020D000112486958695869590E3980F9783880FAF
:1020E000982F990F990F890F681B605D608705C055
:1020F000E5E4F3E080E2878380878AE380934E0300
:1021000022FF15C0E5E4F3E08DEC489F812D1124FA
:1021100086958695869590E3980F9287880F982FDD
:10212000990F990F890F481B405D438705C0E5E46F
:10213000F3E080E282878387E5E4F3E080E284874E
:10214000858786878787108ACF010895CF93DF938D
:10215000E22FC0E5D3E0F0E2F883F983982F92955F
:102160009F70905D9A838F70805D8B839EE29C83CD
:10217000862F82958F70805D8D836F70605D6E831A
:102180009F839A01369527953695279536952795FD
:10219000A5ECB0E20E943712929582958F70892744
:1021A0009F70892720E3280F288768EE73E0869FB9
:1021B0009001879F300D969F300D1124421B530BC9
:1021C00089E2489F812D112482958F7090E3980FAA
:1021D000998794E6899F40191124842F82958F70E6
:1021E000805D8A874F70405D4B87FC878E2F90E023
:1021F000FC013197E730F105A8F5ED5CFF4F0C9439
:102200003112E0E5F3E083E585878FE686872CC011
:10221000E0E5F3E08DE485878FE6868725C0E0E57D
:10222000F3E084E4858789E686871EC0E0E5F3E075
:102230008DE4858789E6868717C0E0E5F3E084E4CE
:1022400085878FE6868710C0E0E5F3E086E4858722
:1022500082E7868709C0E0E5F3E083E5858781E6CC
:10226000868702C010925D03E0E5F3E080E2878795
:10227000108ACF01DF91CF9108950F93CF93DF9311
:10228000E22FA0E5B3E090E29C9311969C93119706
:1022900000FF16C09DEC899F912D1124969596956F
:1022A000969520E3290F12962C931297990F292FB8
:1022B000220F220F920F891B805D13968C9308C00A
:1022C000A0E5B3E080E212968C93129713968C935C
:1022D0008EE28093540301FF18C0A0E5B3E08DECBB
:1022E000689F812D112486958695869590E3980F99
:1022F00015969C931597880F982F990F990F890F12
:10230000681B605D16966C9308C0A0E5B3E080E2A0
:1023100015968C93159716968C93C0E5D3E08EE2B4
:102320008F839A013695279536952795369527956B
:10233000A5ECB0E20E943712929582958F708927A2
:102340009F70892720E3280F288768EE73E0869F17
:102350009001879F300D969F300D1124421B530B27
:1023600089E2489F812D112482958F70805D898735
:1023700002FF1FC089E2489F812D112482958F7032
:10238000942F24E6829F90191124892F9DEC899F18
:10239000912D112496959695969520E3290F2A87DD
:1023A000990F292F220F220F920F891B805D8B8797
:1023B00008C0A0E5B3E080E21A968C931A971B96AA
:1023C0008C9380E280935C0303FF3CC08E2F90E0EF
:1023D000FC013197E730F105D0F5E65CFF4F0C9436
:1023E0003112E0E5F3E083E585878FE686872FC02D
:1023F000E0E5F3E08DE485878FE6868728C0E0E599
:10240000F3E084E4858789E6868721C0E0E5F3E090
:102410008DE4858789E686871AC0E0E5F3E084E4E9
:1024200085878FE6868713C0E0E5F3E086E485873D
:1024300082E786870CC0E0E5F3E083E5858781E6E7
:10244000868705C0E0E5F3E080E285878687E0E5E2
:10245000F3E080E28787108ACF01DF91CF910F915F
:102460000895EE0FFF1F0590F491E02D0994A29FAF
:10247000B001B39FC001A39F700D811D1124911D58
:10248000B29F700D811D1124911D0895E199FECF19
:102490009FBB8EBBE09A99278DB30895262FE199B3
:1024A000FECF9FBB8EBBE09A01970DB2021631F0B2
:1024B0002DBB0FB6F894E29AE19A0FBE0895F894F6
:0224C000FFCF4C
:1024C2000000FF000000000100000000000000000A
:1024D200205B68685D002D3E205361766564212093
:1024E20020202020202000205B6D6D5D00205B738A
:1024F200735D00537769746368592053572E2056D1
:10250200312E3100537769746368592048572E2061
:1025120056312E31002020202020537769746368C1
:102522005920202020002D3E2053657420537973BA
:102532002E2054696D65002D3E2053657420537919
:10254200732E204461746500202D54726961635BAF
:10255200315D20436E66672E0020202054696D6530
:10256200205B4F6E5D202020200020202054696DCA
:1025720065205B4F66665D2020200020204D616E45
:1025820075616C204F6E205B785D200020204D61CC
:102592006E75616C204F6E205B205D20002D3E53D6
:1025A200746174653A2044697361626C65002D3E02
:1025B20053746174653A20456E61626C6520002037
:1025C2002020202020457869743F202020202000F0
:1025D200202D54726961635B325D20436E66672E03
:1025E20000202D54726961635B335D20436E666720
:1025F2002E00202A416374697665205472696163F2
:102602002A2000446973702E20616C7761797320EF
:102612004F6E20002D3E2020204F6E205B785D20E3
:1026220020202020002D3E2020204F6E205B205DA8
:10263200202020202000202053797374656D2049CA
:102642006E666F2E20200057656C636F6D65207477
:102652006F2E2E2020202000546869732069732E6B
:102662002E20202020202020004275696C6420400A
:102672002020202020202020200032332E30352E12
:1026820032303137202020202020004275696C64CE
:1026920020627920202020202020200020204A2E85
:1026A2004820456C65632E284329202000436F6E25
:1026B20074616374202D3E204A616E2E00486F6D56
:1026C200616E6E407961686F6F2E6465005374614C
:1026D2007274204E6F772E2E202020202000456E0F
:1026E2006A6F792069742120202020202020002D6B
:1026F2003E204272696768746E6573732020200001
:102702003C2D20546F67672E5472696163202D3E01
:10271200002A2A2A4D616E752E204D6F64652A2A81
:102722002A00202020202020204F6E202020202040
:10273200202000202020202020204F6666202020FC
:042742002020200033
:00000001FF
